:04000000020029329F
:01000B0032C2
:0100130032BA
:01001B0032B2
:0300230002016B6C
:06008200750800020026D3
:030026000200884D
:200088001200D81200E5C2AC9002AC75F08012014D9002EA75F08012014D90030F75F0803E
:2000A80012014DD2ACD2AFC2A0909C401200C1D2A0909C401200C180EEAE82AF837C007DBE
:2000C80000C3EC9EED9F50070CBC00F50D80F22275800075900075A00075B0032275892013
:2000E800759850758DFDD28E2285829910990280FB2275820D1200F175820A0200F1AD8208
:20010800AE83AFF07C00EC2DF9E43EFA8F0389828A838BF012028C602B8C030CEB2DF9E47D
:200128003EFA8F0389828A838BF012028CF582C007C006C005C0041200F1D004D005D006AB
:20014800D00780C2221201060200FA12010630000990033175F08002014D90033775F0804D
:2001680002014DC020C0E0C0F0C082C083C007C006C005C004C003C002C001C000C0D07551
:20018800D0007F00309804AF99C298BF3000500302026DEF24C6500302026DEF24D0FF2444
:2001A8000A83F582EF240E83F583E473C8D7E9FB0C1D2E3F506101010101020202020202E6
:2001C80075900090033E75F08012014D02026DB290A290920090035675F08012015302024D
:2001E8006DB291A291920090035F75F08012015302026DB292A292920090036875F08012D8
:2002080001538061B293A293920090037175F0801201538050B294A294920090037A75F0F6
:2002280080120153803FB295A295920090038375F080120153802EB296A296920090038CC1
:2002480075F080120153801DB297A297920090039575F080120153800C7590FF90039E75F1
:20026800F08012014DC298D0D0D000D001D002D003D004D005D006D007D083D082D0F0D0DB
:04028800E0D0203270
:2002AC005061726120416374697661722F446573616374697661722053616C69646173208E
:2002CC0028312D38292070756C7365206C6173205465636C61732031206120382E005465F5
:2002EC00636C6120302044657361637469766120746F646173206C61732073616C69646195
:20030C00732E005465636C6120392041637469766120746F646173206C61732073616C6912
:20032C006461732E00203A204F4E00203A204F464600546F646173206C61732053616C69DB
:20034C00646173203A204F46460053616C69646120310053616C69646120320053616C693C
:20036C00646120330053616C69646120340053616C69646120350053616C69646120360070
:20038C0053616C69646120370053616C696461203800546F646173206C61732053616C6902
:0903AC00646173203A204F4E00F9
:06005800E478FFF6D8FD7C
:200036007900E94400601B7A009003B5780175A000E493F2A308B8000205A0D9F4DAF275B8
:02005600A0FF09
:20005E007800E84400600A790175A000E4F309D8FC7800E84400600C7900900001E4F0A3A0
:04007E00D8FCD9FAD7
:0D0029007581201202A8E582600302002606
:1C028C0020F71430F6148883A88220F507E6A88375830022E280F7E49322E02281
:0402A8007582002239
:00000001FF
