:0400000002002132A7
:03000B0002048963
:0100130032BA
:03001B00020507D4
:20007A00E4F521F522F523F524F529F52AF52BF52CF52DF52EF52FF530F531F532F533F5AE
:20009A0034F535F536F537F538F539F53AF53BF53CF53DF53EF53FF540F541F542F543F53E
:2000BA0044F545F546F547F548F549F54AF54B754E40754FF97550247551307552197553F0
:0F00DA00127554027555F8F55675571002001E31
:03001E000205A830
:2000E900AE82AF837C007D00C3EC9EED64808FF063F08095F0501B7AFB7B04EA24FFF8EB58
:2001090034FFF988028903E84970F00CBC00D90D80D6223096030201EC7401B5250614B507
:20012900260280237402B52506E4B52602803C7403B52506E4B5260280557404B52506E4EF
:20014900B52602806E80CC209621D290C291C292C293752501752600752301752400E532CB
:20016900244EF987A09000641200E9209621C290D291C292C293752502752600752302757A
:200189002400E534244EF987A09000641200E9209621C290C291D292C2937525037526002B
:2001A900752303752400E536244EF987A09000641200E930960302011C752501752600C286
:2001C90090C291C292D293752304752400E538244EF987A09000641200E975250175260071
:2001E90002011C85238285248322AE82AF83BE0106BF0003EE8001E4FDE4BE0204BF0001BE
:2002090004FCE4BE0304BF000104FBE4BE0404BF000104FF309703020390ED700FEC706277
:20022900EB60030202E2EF60EB020339E532244EF987A0900064C007C005C004C003120047
:20024900E9D003D004D005D0070532E4B5320205337406B53206E4B5330280028005E4F508
:2002690032F533E532244EF987A0900014C007C005C004C0031200E9D003D004D005D0076D
:200289008092E534244EF987A0900064C007C005C004C0031200E9D003D004D005D007053E
:2002A90034E4B534020535740AB53406E4B5350280028005E4F534F535E534244EF987A0D2
:2002C900900014C007C005C004C0031200E9D003D004D005D00702021DE536244EF987A042
:2002E900900064C007C005C004C0031200E9D003D004D005D0070536E4B5360205377406DE
:20030900B53606E4B5370280028005E4F536F537E536244EF987A0900014C007C005C0042E
:20032900C0031200E9D003D004D005D00702021DE538244EF987A0900064C007C005C0048F
:20034900C0031200E9D003D004D005D0070538E4B538020539740AB53806E4B5390280026E
:200369008005E4F538F539E538244EF987A0900014C007C005C004C0031200E9D003D004A8
:20038900D005D00702021D22752701752800D290C291C292C29320003475A88875210175C8
:2003A9002200752501752600E542244EF987A09000641200E9854232854333854434854579
:2003C9003585463685473785483885493930003475A880852A32852B33852C34852D3585B9
:2003E9002E36852F37853038853139752101752200752501752600E52A244EF987A0900034
:20040900641200E920B35E2000308532428533438534448535458536468537478538488575
:20042900394985323A85333B85343C85353D85363E85373F85384085394130001885322A48
:2004490085332B85342C85352D85362E85372F853830853931758911758AF6758CFF75A813
:200469008AD28C801A20960912011C8582218583222097908521828522831201F3808522EB
:20048900C0E0C0F0C082C083C001C0D075D000758A36758CF675A0FFC290A2909292A292CC
:2004A9009291A29192930529532903E52924FC4040E52975F003A49004C4730204D002049C
:2004C900DB0204E60204F1E530244EF987A0D293801FE52E244EF987A0D2928014E52C24D8
:2004E9004EF987A0D2918009E52A244EF987A0D290D0D0D001D083D082D0F0D0E032C0E03E
:20050900C0D0054AE4B54A02054B7414B54A06E4B54B0280030205A30530E4B530020531E8
:20052900740AB53006E4B5310280028068E4F530F531052EB52E02052F7406B52E06E4B59C
:200549002F028002804FE4F530F531F52EF52F052CB52C02052D740AB52C06E4B52D0280A7
:20056900028032E4F530F531F52EF52FF52CF52D052AB52A02052B7406B52A06E4B52B02A0
:2005890080028011E4F530F531F52EF52FF52CF52DF52AF52BE4F54AF54BD0D0D0E032E47E
:2005A900F54CF54DD296D295D294D2B3D297E4F527F528758911758AF6758CFF75A88AD2F2
:2005C9008C758BFD758D4BD28E209505C200120391209405D200120391E53AB52AEBE53B80
:2005E900B52BE6E53CB52CE1E53DB52DDCE53EB52ED7E53FB52FD2E540B530CDE541B531CF
:1B060900C87401B5270614B52802800280BBC2B79001F41200E9D2B780AF2234
:06005000E4787FF6D8FD04
:20002E007900E94400601B7A00900628780175A000E493F2A308B8000205A0D9F4DAF2754A
:02004E00A0FF11
:200056007800E84400600A790175A000E4F309D8FC7800E84400600C7900900001E4F0A3A8
:04007600D8FCD9FADF
:0D002100758157120624E582600302001E5F
:0406240075820022B9
:00000001FF
