:0400000002002132A7
:03000B000204CC20
:0100130032BA
:03001B0002054497
:10007A00E4F508F509F50AF50BF50CF50DF50EF59D
:10008A000FF510F511F512F513F514F515F516F52A
:10009A0017F518F519F51AF51BF51CF51DF51EF5DA
:1000AA001FF520F521F522F523F524F525F526F58A
:1000BA0027F528F529F52AF52BF52CF52DF52EF53A
:1000CA002FF530F531F532F533F53475354075369F
:1000DA00F9753724753830753919753A12753B0236
:0B00EA00753CF8F53D753E1002001E4D
:03001E000205E5F3
:1000F500AE82AF837C007D00C3EC9EED64808FF003
:1001050063F08095F0501B7AFB7B04EA24FFF8EB43
:1001150034FFF988028903E84970F00CBC00D90D59
:1001250080D6223096030201F87401B50C0614B589
:100135000D0280237402B50C06E4B50D02803C74F3
:1001450003B50C06E4B50D0280557404B50C06E440
:10015500B50D02806E80CC209621D290C291C292BC
:10016500C293750C01750D00750A01750B00E51933
:100175002435F987A09000641200F5209621C290DD
:10018500D291C292C293750C02750D00750A027563
:100195000B00E51B2435F987A09000641200F520BB
:1001A5009621C290C291D292C293750C03750D002F
:1001B500750A03750B00E51D2435F987A0900064C9
:1001C5001200F5309603020128750C01750D00C269
:1001D50090C291C292D293750A04750B00E51F2453
:1001E50035F987A09000641200F5750C01750D00B6
:1001F500020128850A82850B8322AE82AF83BE0168
:1002050006BF0003EE8001E4FDE4BE0204BF000169
:1002150004FCE4BE0304BF000104FBE4BE0404BF08
:10022500000104FF30970122ED700FEC7062EB6066
:10023500030202ECEF60ED020343E5192435F9876B
:10024500A0900064C007C005C004C0031200F5D02B
:1002550003D004D005D0070519E4B51902051A74B1
:1002650006B51906E4B51A0280028005E4F519F50C
:100275001AE5192435F987A0900014C007C005C0F8
:1002850004C0031200F5D003D004D005D007809434
:10029500E51B2435F987A0900064C007C005C0049C
:1002A500C0031200F5D003D004D005D007051BE428
:1002B500B51B02051C740AB51B06E4B51C028002B9
:1002C5008005E4F51BF51CE51B2435F987A0900096
:1002D50014C007C005C004C0031200F5D003D00444
:1002E500D005D007020229E51D2435F987A0900025
:1002F50064C007C005C004C0031200F5D003D004D4
:10030500D005D007051DE4B51D02051E7406B51DF3
:1003150006E4B51E0280028005E4F51DF51EE51D07
:100325002435F987A0900014C007C005C004C00398
:100335001200F5D003D004D005D007020229E51F2D
:100345002435F987A0900064C007C005C004C00328
:100355001200F5D003D004D005D007051FE4B51F62
:10036500020520740AB51F06E4B520028002800547
:10037500E4F51FF520E51F2435F987A0900014C08A
:1003850007C005C004C0031200F5D003D004D00592
:10039500D007020229AE82AF83750E01750F00D218
:1003A50090C291C292C293EE4F703B75A8887508B2
:1003B50001F509750C01750D00E5292435F987A0AE
:1003C500900064C007C0061200F5D006D007852945
:1003D50019852A1A852B1B852C1C852D1D852E1EFE
:1003E500852F1F853020BE0106BF0003EE8001E486
:1003F500FD604075A88085111985121A85131B8526
:10040500141C85151D85161E85171F851820750852
:1004150001750900750C01750D00E5112435F98785
:10042500A0900064C007C006C0051200F5D005D035
:1004350006D00720B35EEE4F7030851929851A2A3C
:10044500851B2B851C2C851D2D851E2E851F2F8517
:100455002030851921851A22851B23851C24851D9D
:1004650025851E26851F27852028ED6018851911ED
:10047500851A12851B13851C14851D15851E168569
:100485001F17852018758911758AF6758CFF75A853
:100495008AD28C22209615C007C006C005120128F5
:1004A500858208858309D005D006D00720978485E5
:1004B5000882850983C007C006C0051201FFD00563
:1004C500D006D007020438C0E0C0F0C082C083C0A7
:1004D50001C0D075D000758A36758CF675A0FFC23F
:1004E50093C291C292C2900510531003E51024FCEB
:1004F5004040E51075F003A49005017302050D0257
:10050500051802052302052EE5172435F987A0D223
:1005150093801FE5152435F987A0D2928014E51341
:100525002435F987A0D2918009E5112435F987A0F2
:10053500D290D0D0D001D083D082D0F0D0E032C0DC
:10054500E0C0D00531E4B5310205327414B5310689
:10055500E4B5320280030205E00517E4B51702058C
:1005650018740AB51706E4B5180280028068E4F528
:1005750017F5180515B5150205167406B51506E423
:10058500B516028002804FE4F517F518F515F51636
:100595000513B513020514740AB51306E4B5140260
:1005A50080028032E4F517F518F515F516F513F503
:1005B500140511B5110205127406B51106E4B5123C
:1005C5000280028011E4F517F518F515F516F513F7
:1005D500F514F511F512E4F531F532D0D0D0E0324D
:1005E500E4F533F534D296D295D294D2B3D297E4CA
:1005F500F50EF50F758911758AF6758CFF75A88A44
:10060500D28C758BFD758D4BD28E20950690000092
:1006150012039A20940690000112039AE521B51160
:10062500E9E522B512E4E523B513DFE524B514DACF
:10063500E525B515D5E526B516D0E527B517CBE5DE
:1006450028B518C67401B50E0614B50F02800280D0
:0D065500B9C2B79001F41200F5D2B780AD24
:06005000E4787FF6D8FD04
:10002E007900E94400601B7A00900666780175A09D
:10003E0000E493F2A308B8000205A0D9F4DAF27531
:02004E00A0FF11
:100056007800E84400600A790175A000E4F309D845
:10006600FC7800E84400600C7900900001E4F0A3FD
:04007600D8FCD9FADF
:0D00210075813E120662E582600302001E3A
:04066200758200227B
:00000001FF
