:03000000020006F5
:03005F0002000399
:0300030002006296
:20006200C290909C40120074D290909C4012007480EEAE82AF837C007D00C3EC9EED9F50F4
:09008200070CBC00F50D80F22210
:06003500E478FFF6D8FD9F
:200013007900E94400601B7A0090008F780175A000E493F2A308B8000205A0D9F4DAF27504
:02003300A0FF2C
:20003B007800E84400600A790175A000E4F309D8FC7800E84400600C7900900001E4F0A3C3
:04005B00D8FCD9FAFA
:0D00060075810712008BE582600302000384
:04008B007582002258
:00000001FF
