:03000000020006F5
:03005F0002000399
:0300030002006296
:200062007F0075217E75223075236D75247975253375265B75275F75287075297F752A7B0B
:20008200752B77752C1F752D4E752E3D752F4F75304775310D75326F7533377534177535C6
:2000A2000475360675373875380E753976753A15753B55753C1D753D67753E05753F0F7526
:2000C200403E75411C75423B7543407544087545017546317547097548808F49C0071202C7
:2000E20050D00785334A758201C00712024285214A75820212024285384A7582031202422A
:20010200852B4A75820412024212027D12027D12027D12027D12027D12027D12027D8526F0
:200122004A758201120242852B4A75820212024285404A758204120242852E4A7582051271
:200142000242853C4A75820612024285264A75820712024212027D12027D12027D12027D6E
:2001620012027D12027D12027D852B4A758201120242754A00758202120242853F4A75826F
:2001820003120242853C4A75820412024212027D12027D12027D12027D12027D12027D1230
:2001A200027D12027DD0077E0085444A8E82C007C00612024212027DD006754A008E82C0DC
:2001C20006120242D006D0070EBE090040DB7E00EE2421F97D00874A8D82C007C006C005CB
:2001E200C001120242D001D005D006D0070DBD080040E38704EF4CF54A8D82C007C00612EB
:20020200024212027DD006D007EF60047F0080027F800EBE290040B8754A00758208C00795
:20022200120242D0070200E5AF827E00C2B7EF33920092B6EF2FFFD2B70EBE080040ED22BB
:20024200C2B512022A854A8212022AD2B522754A0175820C120242754A0075820F1202427B
:20026200754A00758209120242754A0775820B120242754A0475820A0202427E417F9CEE77
:1002820024FFFCEF34FFFD8C068D07EC4D70F0224D
:06003500E478FFF6D8FD9F
:200013007900E94400601B7A00900296780175A000E493F2A308B8000205A0D9F4DAF275FB
:02003300A0FF2C
:20003B007800E84400600A790175A000E4F309D8FC7800E84400600C7900900001E4F0A3C3
:04005B00D8FCD9FAFA
:0D00060075814A120292E582600302000338
:04029200758200224F
:00000001FF
