:03000000020006F5
:03005F0002000399
:0300030002061DD5
:10006200AF821FEF60077E03DEFE00DFF922C007CA
:10007200C006C005C004C003AB82AC831BBBFF013A
:100082001CEB4C600875821E12006280EFD003D018
:1000920004D005D006D00722D290D291C290C2914C
:1000A20022C291D290D291C29022C290D291D29089
:1000B20022AF827E00EF3392019290D291EF2FFF16
:1000C200C2910EBE080040EDD290D291A290920051
:1000D200C291C290A200227F00D2907E00EF2FFF39
:1000E200D291309003430701C2910EBE080040ED49
:1000F200C290A202B39290D291C2918F8222AF8219
:1001020074F05FC4540F75F00AA4FE740F5F2EF5ED
:100112008222AF8275F00AEF84C454F0FE75F00AB1
:10012200EF84E5F04EF5822212009A7582D0120019
:10013200B37582001200B312009A7582D11200B315
:10014200D2021200D9120100E582F50ED20212008B
:10015200D9120100E582F50DD2021200D912010076
:10016200E582F50CD2021200D9E582F508D202121C
:1001720000D9120100E582F509D2021200D912015A
:1001820000E582F50AC2021200D9120100E582F5E9
:100192000B0200AC12009A7582D01200B375820075
:1001A2001200B3850E821201141200B3850D821261
:1001B20001141200B3850C821201141200B38508D7
:1001C200821200B38509821201141200B3850A82D9
:1001D2001201141200B3850B821201141200B30231
:1001E20000ACAF82C00712009A7582D01200B375BC
:1001F20082071200B3D0078F821200B30200ACE56F
:1002020082FFA2E492039294EFA2E592039295EF09
:10021200A2E692039296EF3392039297D2939000C2
:1002220002120070C293900002020070AF82C007F7
:10023200120201D007EFC454F0F582020201AF822C
:10024200C2928F8202022EAF82D2928F8202022E3D
:10025200AF82E50F700874802FF5820202407401AC
:10026200B50F0874C02FF5820202407402B50F0860
:1002720074942FF5820202407403B50F0874D42FD0
:10028200F58202024022AD82AE83AFF08D828E8370
:100292008FF0120660FC60188C82C007C006C00591
:1002A200120249D005D006D0070DBD00DF0E80DC5A
:1002B200229000C8120070C294C295C296C297C220
:1002C20092C29390001E1200707582301202019049
:1002D20000051200707582301202019000011200B6
:1002E2007075823012020175822012020175822815
:1002F200120240758208120240758206120240758F
:10030200820C120240758201020240E5081475F067
:1003120004A42480FE740635F0FF7D808E828F83D4
:100322008DF00202887403550BFFB4010022AF0A5C
:10033200BF020E12032750047E1D80027E1C8E8295
:1003420022BF0402800DBF06028008BF090280039B
:10035200BF0B0475821E2275821F22AF8275F00ABE
:10036200EF842430F582C007120249D00775F00AE3
:10037200EF84E5F02430F582020249750F007582A0
:100382000112025285098212035D75822F120249FF
:10039200850A8212035D75822F120249850B821231
:1003A200035D90069C75F08012028812030D900680
:1003B200A075F080120288750F0175820112025237
:1003C200850C8212035D75823A120249850D8212F2
:1003D200035D75823A120249850E8212035D900610
:1003E200A275F080020288AF82740CB51304740106
:1003F2008001E4FEAB15AC16AD1730B20630B30384
:100402000204DF75820CC007C006C005C004C00329
:10041200120240D003D004D005D006D00720B22764
:100422008B828C838DF0120660FA0A8B828C838D0C
:10043200F0EA120645C3E5129A503E8B828C838DF8
:10044200F0EF12064580328B828C838DF0120660AB
:10045200FA1A8B828C838DF0EA1206458B828C838A
:100462008DF0120660F9C3EA9F4003B9FF0B8B823D
:100472008C838DF0E51212064585140F851382C018
:1004820007C006C005C004C003120252D003D00444
:10049200D005D006D007EE6019C007C006C005C05F
:1004A20004C00312030DD003D004D005D006D00738
:1004B20080228B828C838DF0120660F582C007C089
:1004C20006C005C004C00312035DD003D004D005EA
:1004D200D006D0079001F41200700203FC20B42869
:1004E200051020B40890000A12007080F58B828CEF
:1004F200838DF0120660FFC3E5129F500B8B828C36
:10050200838DF0E512120645EE6002051305138590
:10051200140F85138212025275820E020240750F69
:10052200017582071202529006AA75F080120288A3
:1005320075820E120240750E0074F92510500302E6
:1005420006067401B5101A75150B7516007517405D
:100552007512637513077514007582001203E98022
:10056200E17402B5101A75150A75160075174075F3
:10057200120C7513047514007582011203E980E1EF
:100582007403B5101D120330858212751509751694
:10059200007517407513017514007582011203E985
:1005A20080DE7404B5101A75150C751600751740A7
:1005B2007512177513017514017582001203E98013
:1005C200E17405B5101A75150D751600751740758D
:1005D200123B7513047514017582001203E980E160
:1005E2007406B51002800302053B751508751600E6
:1005F20075174075120775130C7514007582011278
:1006020003E980DC75820C020240D2B2D2B3D2B4CA
:10061200D2B57582901201E40202B312060C20B424
:100622001475100120B40890000A12007080F512AF
:10063200052012019612012A12037D20B5FD20B574
:03064200DD80FB5D
:10068000444F4D004C554E004D4152004D494500E0
:100690004A5545005649450053414200202020005C
:0D06A00020002020202020202000303000ED
:06003500E4787FF6D8FD1F
:100013007900E94400601B7A009006AD780175A071
:1000230000E493F2A308B8000205A0D9F4DAF2754C
:02003300A0FF2C
:1006450020F71130F6138883A88220F509F6A883D0
:0B0655007583002280FEF280F5F02289
:10003B007800E84400600A790175A000E4F309D860
:10004B00FC7800E84400600C7900900001E4F0A318
:04005B00D8FCD9FAFA
:0D00060075812012067CE582600302000374
:1006600020F71430F6148883A88220F507E6A883C3
:1006700075830022E280F7E49322E0227582002253
:00000001FF
