:03000000020006F5
:03005F0002000399
:030003000208B33D
:20006200AF821FEF60077E03DEFE00DFF922AF821FEF7E2CDEFE0060077D30DDFE00DFF9F5
:2000820022AB82AC831BBBFF011CEB4C600875824212006280EF22D2A1D2A0C2A1C2A02245
:2000A200C2A1D2A0D2A122AF827E00EF30E704D2A18002C2A1D2A0EF2FFFC2A00EBE0800FE
:2000C20040E9D2A1D2A0A2A1E433F582C2A022AF827E00D2A17D00EE2EFED2A030A0FB3095
:2000E200A103430601C2A00DBD080040EAEF6004C2A18002D2A1D2A0C2A0D2A18E8222AFDF
:200102008274F05FC4540F75F00AA4FE740F5F2EF58222AF8275F00AEF84C454F0FE75F039
:200122000AEF84E5F04EF58222AD82AE83AFF0C007C006C0051200997582D01200A975820F
:20014200001200A91200997582D11200A9D005D006D00774062DFAE43EFB8F04758201C029
:2001620007C006C005C004C003C0021200D1120101A982D002D003D004D005D006D0078AFB
:20018200828B838CF0E912090274052DFAE43EFB8F04758201C007C006C005C004C003C06A
:2001A200021200D1120101A982D002D003D004D005D006D0078A828B838CF0E9120902740E
:2001C200042DFAE43EFB8F04758201C007C006C005C004C003C0021200D1120101A982D0BD
:2001E20002D003D0048A828B838CF0E91209027582011200D1120101AC82D005D006D00719
:200202008D828E838FF0EC12090274012DFAE43EFB8F04758201C007C006C005C004C00317
:20022200C0021200D1120101A982D002D003D004D005D006D0078A828B838CF0E912090241
:2002420074022DFAE43EFB8F04758201C007C006C005C004C003C0021200D1120101A9829A
:20026200D002D003D004D005D0068A828B838CF0E912090274032DFDE43EFE758200C0063E
:20028200C0051200D1120101AC82D005D006D0078D828E838FF0EC1209020200A2AD82AEC7
:2002A20083AFF0C007C006C0051200997582D01200A97582001200A9D005D006D0077406ED
:2002C2002DFAE43EFB8F048A828B838CF012091DF582C007C006C0051201151200A9D005F6
:2002E200D006D00774052DFAE43EFB8F048A828B838CF012091DF582C007C006C005120155
:20030200151200A9D005D006D00774042DFAE43EFB8F048A828B838CF012091DF582C0072E
:20032200C006C0051201151200A9D005D006D0078D828E838FF012091DF582C007C006C030
:20034200051201151200A9D005D006D00774012DFAE43EFB8F048A828B838CF012091DF522
:2003620082C007C006C0051201151200A9D005D006D00774022DFAE43EFB8F048A828B83DB
:200382008CF012091DF582C007C006C0051201151200A9D005D006D00774032DFDE43EFEB8
:2003A2008D828E838FF012091DF5821201151200A97582801200A90200A2E582FFA2E492B6
:2003C200009294EFA2E592009295EFA2E692009296EF3392009297D291900001120083C26D
:2003E20091900001020083AF82C0071203BCD007EFC454F0F5820203BCAF82C2908F8202EF
:2004020003E9AF82D2908F820203E9AF82E528700874802FF5820203FB7401B5280874C07E
:200422002FF5820203FB7402B5280874942FF5820203FB7403B5280874D42FF5820203FBC1
:20044200227582020203FB7582010203FB75820E0203FB75820D0203FB75820F0203FB7503
:20046200820C0203FB75820C0203FB7582080203FB75821C0203FB7582180203FB758214BD
:200482000203FB7582100203FBE5825407C40354F82440F5821203FB852982120404852A9A
:2004A20082120404852B82120404852C82120404852D82120404852E82120404852F821220
:2004C2000404853082020404AD82AE83AFF08D828E838FF012091DFC60188C82C007C006EC
:2004E200C005120404D005D006D0070DBD00DF0E80DC22C294C295C296C297C290C29190D1
:20050200001E1200837582301203BC9000051200837582301203BC900001120083758230BF
:200522001203BC7582201203BC7582281203FB7582081203FB7582061203FB75820C12039D
:20054200FB7582010203FBE521FF24F8500122EF240A83F582EF240C83F583E473AE6F78F5
:20056200818A939CA5050505050505050590093D75F0800204CA90094175F0800204CA90C8
:20058200094575F0800204CA90094975F0800204CA90094D75F0800204CA90095175F08055
:2005A2000204CA90095575F0801204CA2274035524FFB4010022AF23BF020E1205AF500413
:2005C2007E1D80027E1C8E8222BF0402800DBF06028008BF09028003BF0B0475821E2275C8
:2005E200821F22AF8275F00AEF842430F582C007120404D00775F00AEF84E5F02430F5821E
:2006020002040475280075820112040D8522821205E575822F1204048523821205E5758294
:200622002F1204048524821205E590095975F0801204CA12054990095D75F0801204CA7501
:20064200280175820112040D8525821205E575823A1204048526821205E575823A1204046D
:200662008527821205E590095F75F0800204CAAF82AC38AD39AE3A30A20630A30302072DDA
:20068200C007C006C005C004120461D004D005D006D00720A2278C828D838EF012091DFBBD
:2006A2000B8C828D838EF0EB120902C3E5359B503E8C828D838EF0EF12090280328C828D8E
:2006C200838EF012091DFB1B8C828D838EF0EB1209028C828D838EF012091DFAC3EB9F40CA
:2006E20003BAFF0B8C828D838EF0E535120902853728853682C007C006C005C00412040D04
:20070200D004D005D0068C828D838EF012091DF582C006C005C0041205E59001F4120083A8
:20072200D004D005D006D00702067920A434053120A41490000AC006C005C004120083D08C
:2007420004D005D00680E98C828D838EF012091DFFC3E5359F500B8C828D838EF0E535120D
:200762000902053685372885368212040D02044F75280175820712040D90096775F08012E2
:2007820004CA12044F75270074F9253150030208A77401B5311A753824753900753A407569
:2007A200356375360775370075820012067180E17402B5311A753823753900753A407535D3
:2007C2000C75360475370075820112067180E17403B5311D1205B8858235753822753900CC
:2007E200753A4075360175370075820112067180DE7404B5311A753825753900753A407575
:20080200351775360175370175820012067180E17405B5311A753826753900753A407535BD
:200822003B75360475370175820012067180E17406B53102800302078A20A225E521FF04D6
:20084200F52120A20890000A12008380F57408B5210375210175280075820C12040D12054C
:200862004920A324E521FF14F52120A30890000A12008380F5E52170037521077528007580
:20088200820C12040D12054920A40E75310720A40890000A12008380F575280075820E12A2
:2008A200040D020831020461D2A2D2A3D2A40204F51208AA20A41A75310120A40890000A7A
:2008C20012008380F512077290002175F04012029F90002175F04012012BE532B52702806F
:2008E2000E120605852732753320753403800675333275340085338285348312008380B431
:20093D00444F4D004C554E004D4152004D4945004A55450056494500534142002020200012
:0D095D00200020202020202020003030002D
:06003500E478FFF6D8FD9F
:200013007900E94400601B7A0090096A780175A000E493F2A308B8000205A0D9F4DAF27520
:02003300A0FF2C
:1B09020020F71130F6138883A88220F509F6A8837583002280FEF280F5F022F4
:20003B007800E84400600A790175A000E4F309D8FC7800E84400600C7900900001E4F0A3C3
:04005B00D8FCD9FAFA
:0D00060075813A120939E58260030200039A
:1C091D0020F71430F6148883A88220F507E6A88375830022E280F7E49322E022E9
:0409390075820022A1
:00000001FF
