:03000000020006F5
:03005F0002000399
:030003000200995F
:10006200AF821FEF60077E03DEFE00DFF922AF8260
:100072001FEF7E2CDEFE0060077D30DDFE00DFF923
:1000820022AB82AC831BBBFF011CEB4C6008758268
:100092006412006280EF22C295D2959001F41200A0
:0B00A20083C2959001F412008380EEF1
:06003500E478FFF6D8FD9F
:100013007900E94400601B7A009000B1780175A073
:1000230000E493F2A308B8000205A0D9F4DAF2754C
:02003300A0FF2C
:10003B007800E84400600A790175A000E4F309D860
:10004B00FC7800E84400600C7900900001E4F0A318
:04005B00D8FCD9FAFA
:0D0006007581071200ADE582600302000362
:0400AD007582002236
:00000001FF
