:03000000020006F5
:03005F0002000399
:0300030002009A5E
:10006200AF821FEF60077E03DEFE00DFF922C007CA
:10007200C006C005C004C003AB82AC831BBBFF013A
:100082001CEB4C600875826112006280EFD003D0D5
:1000920004D005D006D00722C295D2959000011255
:0C00A2000070C29590000112007080EE0A
:06003500E478FFF6D8FD9F
:100013007900E94400601B7A009000B2780175A072
:1000230000E493F2A308B8000205A0D9F4DAF2754C
:02003300A0FF2C
:10003B007800E84400600A790175A000E4F309D860
:10004B00FC7800E84400600C7900900001E4F0A318
:04005B00D8FCD9FAFA
:0D0006007581071200AEE582600302000361
:0400AE007582002235
:00000001FF
