:04000000020029329F
:01000B0032C2
:0100130032BA
:01001B0032B2
:0300230002017166
:06008200750800020026D3
:030026000200884D
:200088001200D91200E6C2AC9002B275F08012014F9002F075F08012014F90031575F08026
:2000A80012014FD2ACD2AFC2A0909C401200C2D2A0909C401200C280EE22AE82AF837C0015
:2000C8007D00C3EC9EED9F50070CBC00F50D80F22275800075900075A00075B003227589B6
:2000E80020759850758DFDD28E2285829910990280FB2275820D1200F275820A1200F222E3
:20010800AD82AE83AFF07C00EC2DF9E43EFA8F0389828A838BF0120292602B8C030CEB2D25
:20012800F9E43EFA8F0389828A838BF0120292F582C007C006C005C0041200F2D004D0059D
:20014800D006D00780C2221201081200FB2212010830000B90033775F08012014F800990BC
:20016800033D75F08012014F22C020C0E0C0F0C082C083C007C006C005C004C003C002C0BE
:2001880001C000C0D075D0007F00309804AF99C298BF30005003020273EF24C650030202EB
:2001A80073EF24D0FF240A83F582EF240E83F583E473CEDDEF01122334455667010101023C
:2001C80002020202020275900090034475F08012014F020273B290A290920090035C75F017
:2001E80080120156020273B291A291920090036575F080120156020273B292A29292009038
:20020800036E75F0801201568061B293A293920090037775F0801201568050B294A29492F4
:200228000090038075F080120156803FB295A295920090038975F080120156802EB296A284
:2002480096920090039275F080120156801DB297A297920090039B75F080120156800C75CD
:2002680090FF9003A475F08012014FC298D0D0D000D001D002D003D004D005D006D007D003
:0A02880083D082D0F0D0E0D0203205
:2002B2005061726120416374697661722F446573616374697661722053616C696461732088
:2002D20028312D38292070756C7365206C6173205465636C61732031206120382E005465EF
:2002F200636C6120302044657361637469766120746F646173206C61732073616C6964618F
:20031200732E005465636C6120392041637469766120746F646173206C61732073616C690C
:200332006461732E00203A204F4E00203A204F464600546F646173206C61732053616C69D5
:20035200646173203A204F46460053616C69646120310053616C69646120320053616C6936
:20037200646120330053616C69646120340053616C69646120350053616C6964612036006A
:2003920053616C69646120370053616C696461203800546F646173206C61732053616C69FC
:0903B200646173203A204F4E00F3
:06005800E478FFF6D8FD7C
:200036007900E94400601B7A009003BB780175A000E493F2A308B8000205A0D9F4DAF275B2
:02005600A0FF09
:20005E007800E84400600A790175A000E4F309D8FC7800E84400600C7900900001E4F0A3A0
:04007E00D8FCD9FAD7
:0D0029007581201202AEE582600302002600
:1C02920020F71430F6148883A88220F507E6A88375830022E280F7E49322E0227B
:0402AE007582002233
:00000001FF
